:100000001CC065C364C3E4C262C361C360C3D1C220
:10001000FCC15DC35CC35BC35AC359C358C357C358
:1000200056C355C354C353C352C351C350C34FC324
:100030004EC34DC33F003F40800011241FBECFEF91
:10004000CDBFDFE3DEBFE4E3F0E040E017C0B591F1
:10005000A59135912591059107FD0CC0959185914C
:10006000EF01F92FE82F05900D92A217B307D9F7EA
:10007000FE0104C01D92A217B307E1F7E933F407AC
:0A00800031F703D005C3F894FFCF59
:10008A008AE090E0AFD2A5D0E6E3FFE380819181D8
:10009A009C012150310920833183892B39F487E06F
:1000AA0094E08093363F9093373F71D11092383F56
:1000BA001092393F8091303F9091313F892BC1F0A6
:1000CA00E8E2FFE385859FEF980F9587811104C0C9
:1000DA008485815085871CD18091323F9091333F2E
:1000EA00E6E3FFE322813381820F931F82839383A6
:1000FA008091383F9091393F883F91053CF087EFD6
:10010A0090E08093383F9093393F09C089309F4FE0
:10011A0034F489E09FEF8093383F9093393F809180
:0A012A00383F9091393FEFD1AFCF7D
:10013400CF93DF93009709F447C08430910508F00A
:1001440048C02091303F3091313F8217930709F422
:1001540040C0FC013197C8E2DFE388879987CF016B
:10016400880F991F880F991F880F991FE80FF91F8F
:10017400E65FF947408151816281738148835983E5
:100184006A837B8384819581A681B781840F951FBF
:10019400A61FB71F8C839D83AE83BF8380858C8706
:1001A4008D871A861B8685D282E08093060460E0E0
:1001B40083E061D160E08A815ED160E089815BD1B6
:1001C40060E0888158D105C01092303F1092313FD1
:0801D40070D2DF91CF91089574
:1001DC0060E081E690E063D285E080935000E0E03F
:1001EC00F4E082E0818390E8928324E02183918380
:1001FC00A0E0BAE020EF31E096962D933C939797D0
:10020C0091E09C9323E111962C9311971A969C9351
:10021C0098E09183818308C0E0E0FAE080AD91AD75
:10022C00019680AF91AF26D28091380A9091390A0D
:10023C00883F910588F362E088E790E030D2E0E4F3
:10024C00F1E081E0878391E2908BE0E0F6E080833F
:10025C0083E18283E0E0F4E088E0808B818B828B09
:10026C00838B848B858B868B878BFCD178940895BC
:10027C00811145C0E82FF0E0EE0FFF1FEE0FFF1FBE
:10028C00E653F947A081B18118969C919170228117
:10029C0026FD02C031E09327E82FF0E0E35CF04C40
:1002AC002223DCF4992369F0908181E0890F80830B
:1002BC00811101C0908380818F3119F1833019F540
:1002CC0008958081803220F4843020F081E003C0D6
:1002DC0080E001C080E0108208958081880F8083C7
:1002EC00992311F08160808380818F70873019F0A1
:1002FC008E3059F002C081E0089580E0089580E0CE
:0E030C00089582E0089580E0089582E008954B
:10031A000F931F9360E080E0ABD0A82FB0E0A05805
:10032A00B10920EF31E0B6D18B019C01992324F465
:10033A0001581F4F2F4F3F4FD901C801689416F833
:10034A00B595A795979587951694D1F7E8E2FFE3B7
:10035A008287938780819181A281B3810196A11DB1
:10036A00B11D80839183A283B383448155816681C1
:10037A00778184179507A607B70731F41092303FA3
:0E038A001092313F93D196D11F910F9108959B
:100398008091303F882329F010923A3F10923B3FDA
:1003A80010C080913A3F90913B3F019680933A3F2D
:1003B80090933B3F809728F08ED010923A3F10924E
:1003C8003B3F80E057DF813019F0823099F0089583
:1003D80080E48093050480913C3F8F5F80933C3F8D
:1003E800843018F081E080933C3F80913C3F90E05E
:1003F8009DDE089580E48093060480E090E096DE18
:02040800089555
:10040A001F920F920FB60F9211242F938F939F93DF
:10041A00EF93FF9381E080930B0A90913E3F809186
:10042A003F3F9817D9F0E0913E3FF0E0EE0FFF1FF3
:10043A00E050F14C8081918120913E3F233119F4A3
:10044A0010923E3F05C020913E3F2F5F20933E3FD2
:10045A0088509F4F8093380A9093390AFF91EF9101
:10046A009F918F912F910F900FBE0F901F9018950B
:10047A00FF920F931F93CF93DF93182FF62E88E0E6
:10048A001EC0112324F480E88093050403C080E889
:10049A0080930604C0E0D4E080E8898394E09D83D9
:1004AA008A830CD1110F888588230CF41F5F0111F0
:1004BA0002C0F11003C084E080930604802F0FEF7E
:1004CA00080F8111DECF812FDF91CF911F910F91FC
:0404DA00FF900895F2
:1004DE00CF93DF93C0E0D4E080E48E839DD03DD0F7
:1004EE0081E08A8389E0888B8AE090E079D08FEF73
:1004FE008987889588E0888B43D09BD0DF91CF91F8
:02050E0008954E
:10051000AC0120913F3F2F5F243109F420E09091FE
:100520003E3F2917E1F3E0913F3FF0E0EE0FFF1F60
:0E053000E050F14C4083518320933F3F0895EB
:10053E00969587950FC000C000C000C000C000C0D7
:10054E0000C000C000C000C000C000C000C000C09D
:0A055E0000C000C0019779F708956E
:1005680010920A0A89D008C0E0E0FAE080AD91ADA7
:10057800019780AF91AF80D08091380A9091390A65
:06058800892B91F7089594
:10058E0001C077D0E0E0FAE080AD91AD9C012F5F25
:10059E003F4F20AF31AF883F910598F381E08093B4
:0405AE000A0A089598
:1005B2001F920F920FB60F9211248F9381E08093B6
:0E05C20053018F910F900FBE0F901F90189550
:1005D0001F920F920FB60F9211248F938FEF80937B
:0E05E00009048F910F900FBE0F901F90189579
:1005EE00CF93DF9304C088EE93E0A2DFCE01EC013F
:0C05FE002197892BC1F7DF91CF91089560
:10060A000000000035280E000235280E0080E22A7C
:0B061A000002B50A3900E5961300024B
:100626001092303F1092313F43D082E0809306040F
:0A06360060E089EB1FDF3CD008955F
:100640003AD08AE090E07BDF82E08093060460E0AD
:080650008BEA13DF30D008959E
:10065800A29FB001B39FC001A39F01D0B29F700DAC
:08066800811D1124911D08956C
:10067000E0E0F4E080E48683818389E0808B089564
:1006800081E080930B0A80910B0A80FFFCCF0895D4
:0E069000EC011FD01DD0CE011DD0CE011CD01C
:0C069E00DCDFB7FF0895821B930B08956A
:0C06AA00DC0128ED209334006C930895CF
:0806B60082E080930504089521
:0806BE0080E480930604089516
:0406C60000C00895D3
:0406CA0000048001A7
:0206CE0098CCC6
:0206D00008958B
:0206D200089589
:0206D400089587
:0206D600D7DC6F
:00000001FF
