:100000001CC011C310C396C20EC30DC30CC383C260
:1000100073C109C308C307C306C305C304C303C32D
:1000200002C301C300C3FFC2FEC2FDC2FCC2FBC2C9
:10003000FAC2F9C23F003F40800011241FBECFEF3B
:10004000CDBFDFE3DEBFE4E3F0E040E017C0B591F1
:10005000A59135912591059107FD0CC0959185914C
:10006000EF01F92FE82F05900D92A217B307D9F7EA
:10007000FE0104C01D92A217B307E1F7E933F407AC
:0A00800031F703D0AFC2F894FFCFB0
:10008A008AE090E061D2A5D0E6E3FFE38081918126
:10009A009C012150310920833183892B39F487E06F
:1000AA0094E08093363F9093373F59D11092383F6E
:1000BA001092393F8091303F9091313F892BC1F0A6
:1000CA00E8E2FFE385859FEF980F9587811104C0C9
:1000DA00848581508587CCD08091323F9091333F7F
:1000EA00E6E3FFE322813381820F931F82839383A6
:1000FA008091383F9091393F883F91053CF087EFD6
:10010A0090E08093383F9093393F09C089309F4FE0
:10011A0034F489E09FEF8093383F9093393F809180
:0A012A00383F9091393FA1D1AFCFCB
:10013400CF93DF93009709F447C08430910508F00A
:1001440048C02091303F3091313F8217930709F422
:1001540040C0FC013197C8E2DFE388879987CF016B
:10016400880F991F880F991F880F991FE80FF91F8F
:10017400E259FA47408151816281738148835983EE
:100184006A837B8384819581A681B781840F951FBF
:10019400A61FB71F8C839D83AE83BF8380858C8706
:1001A4008D871A861B862FD282E08093060460E036
:1001B40083E00BD160E08A8108D160E0898105D1B8
:1001C40060E0888102D105C01092303F1092313F27
:0801D4001AD2DF91CF910895CA
:1001DC0060E081E690E00DD285E080935000E0E095
:1001EC00F4E082E0818380E8828394E091838183D0
:1001FC00A0E0BAE080EF91E096968D939C93979750
:10020C0081E08C9393E111969C9311971A968C93A1
:10021C0088E0818308C0E0E0FAE080AD91AD019602
:10022C0080AF91AFD1D18091380A9091390A883F33
:10023C00910588F362E088E790E0DBD1E0E4F1E03F
:10024C0081E0878391E2908BE0E0F6E0808383E1AC
:10025C008283E0E0F4E088E0808B818B828B838B5F
:0E026C00848B858B868B878BCED178940895FA
:10027A000F931F9360E080E0A5D0A82FB0E0A058AC
:10028A00B10920EF31E0B0D18B019C01992324F40C
:10029A0001581F4F2F4F3F4FD901C801689416F8D4
:1002AA00B595A795979587951694D1F7E8E2FFE358
:1002BA008287938780819181A281B3810196A11D52
:1002CA00B11D80839183A283B38344815581668162
:1002DA00778184179507A607B70731F41092303F44
:0E02EA001092313F8DD194D11F910F91089544
:1002F8001F920F920FB60F9211242F938F939F93F3
:10030800EF93FF9381E080930B0A90913E3F809199
:100318003F3F9817D9F0E0913E3FF0E0EE0FFF1F06
:10032800E050F14C8081918120913E3F233119F4B6
:1003380010923E3F05C020913E3F2F5F20933E3FE5
:1003480088509F4F8093380A9093390AFF91EF9114
:100358009F918F912F910F900FBE0F901F9018951E
:100368008091303F882321F010923C3F10923D3F0E
:1003780080913C3F90913D3F019680933C3F909304
:100388003D3F8D379105F0F050D010923C3F1092D0
:100398003D3F80913A3F90913B3F019680933A3F91
:1003A80090933B3F049730F081E090E080933A3F90
:1003B80090933B3F80913A3F90913B3FB7DE80E47A
:0603C80080930504089576
:1003CE00FF920F931F93CF93DF93182FF62E88E093
:1003DE001EC0112324F480E88093050403C080E836
:1003EE0080930604C0E0D4E080E8898394E09D8386
:1003FE008A8310D1110F888588230CF41F5F011199
:10040E0002C0F11003C084E080930604802F0FEF2A
:10041E00080F8111DECF812FDF91CF911F910F91A8
:04042E00FF9008959E
:100432000F931F93CF93DF93C0E0D4E080E48983CE
:100442008E83A2D042D014E019831A8A0FEF098753
:100452001A8381E08A8B8AE090E07AD009878895B6
:100462001A8A198345D09DD0DF91CF911F910F91A8
:020472000895EB
:10047400AC0120913F3F2F5F243109F420E090919B
:100484003E3F2917E1F3E0913F3FF0E0EE0FFF1FFD
:0E049400E050F14C4083518320933F3F089588
:1004A200969587950FC000C000C000C000C000C074
:1004B20000C000C000C000C000C000C000C000C03A
:0A04C20000C000C0019779F708950B
:1004CC0010920A0A81D008C0E0E0FAE080AD91AD4C
:1004DC00019780AF91AF78D08091380A9091390A0A
:0604EC00892B91F7089531
:1004F20001C06FD0E0E0FAE080AD91AD9C012F5FCA
:100502003F4F20AF31AF883F910598F381E0809350
:040512000A0A089534
:100516001F920F920FB60F9211248F9381E0809352
:0E05260053018F910F900FBE0F901F901895EC
:100534001F920F920FB60F9211248F938FEF809317
:0E05440009048F910F900FBE0F901F90189515
:10055200CF93DF9304C088EE93E0A2DFCE01EC01DB
:0C0562002197892BC1F7DF91CF910895FC
:10056E000000000080E22A000280E22A0035280EF8
:0B057E000002B50A3900E596130002E8
:10058A001092303F1092313F3BD082E080930604B4
:0A059A0060E089EB17DF34D008950C
:1005A40032D08AE090E07BDF82E08093060460E052
:0805B4008BEA0BDF28D008954B
:1005BC00A29FB001B39FC001A39F01D0B29F700D49
:0805CC00811D1124911D089509
:1005D40081E080930B0A80910B0A80FFFCCF089581
:0E05E400EC0121D01FD0CE011FD0CE011ED0C1
:0C05F200E4DFB7FF0895821B930B08950F
:0C05FE00DC0128ED209334006C9308957C
:08060A0082E0809305040895CD
:0806120080E4809305040895C3
:08061A0080E4809302040895BE
:0406220000C0089577
:02062600ECCC1A
:02062800089533
:02062A00089531
:02062C0008952F
:02062E002BDDC2
:00000001FF
